{
  "contractName": "Adoption",
  "abi": [
    {
      "constant": true,
      "inputs": [
        {
          "internalType": "uint256",
          "name": "",
          "type": "uint256"
        }
      ],
      "name": "adopters",
      "outputs": [
        {
          "internalType": "address",
          "name": "",
          "type": "address"
        }
      ],
      "payable": false,
      "stateMutability": "view",
      "type": "function"
    },
    {
      "constant": false,
      "inputs": [
        {
          "internalType": "uint256",
          "name": "petId",
          "type": "uint256"
        }
      ],
      "name": "adopt",
      "outputs": [
        {
          "internalType": "uint256",
          "name": "",
          "type": "uint256"
        }
      ],
      "payable": true,
      "stateMutability": "payable",
      "type": "function"
    },
    {
      "constant": false,
      "inputs": [
        {
          "internalType": "uint256",
          "name": "petId",
          "type": "uint256"
        }
      ],
      "name": "rent",
      "outputs": [
        {
          "internalType": "uint256",
          "name": "",
          "type": "uint256"
        }
      ],
      "payable": true,
      "stateMutability": "payable",
      "type": "function"
    },
    {
      "constant": true,
      "inputs": [],
      "name": "getAdopters",
      "outputs": [
        {
          "internalType": "address[16]",
          "name": "",
          "type": "address[16]"
        }
      ],
      "payable": false,
      "stateMutability": "view",
      "type": "function"
    }
  ],
  "bytecode": "0x6080604052600060105534801561001557600080fd5b506103a4806100256000396000f3fe60806040526004361061003f5760003560e01c80633de4eb171461004457806343ae80d3146100975780637456be7d146101125780638588b2c514610154575b600080fd5b34801561005057600080fd5b50610059610196565b6040518082601060200280838360005b83811015610084578082015181840152602081019050610069565b5050505090500191505060405180910390f35b3480156100a357600080fd5b506100d0600480360360208110156100ba57600080fd5b8101908080359060200190929190505050610217565b604051808273ffffffffffffffffffffffffffffffffffffffff1673ffffffffffffffffffffffffffffffffffffffff16815260200191505060405180910390f35b61013e6004803603602081101561012857600080fd5b810190808035906020019092919050505061024a565b6040518082815260200191505060405180910390f35b6101806004803603602081101561016a57600080fd5b81019080803590602001909291905050506102cb565b6040518082815260200191505060405180910390f35b61019e61034c565b600060108060200260405190810160405280929190826010801561020d576020028201915b8160009054906101000a900473ffffffffffffffffffffffffffffffffffffffff1673ffffffffffffffffffffffffffffffffffffffff16815260200190600101908083116101c3575b5050505050905090565b6000816010811061022457fe5b016000915054906101000a900473ffffffffffffffffffffffffffffffffffffffff1681565b600080821015801561025d5750600f8211155b61026657600080fd5b34601060008282540192505081905550336000836010811061028457fe5b0160006101000a81548173ffffffffffffffffffffffffffffffffffffffff021916908373ffffffffffffffffffffffffffffffffffffffff160217905550819050919050565b60008082101580156102de5750600f8211155b6102e757600080fd5b34601060008282540192505081905550336000836010811061030557fe5b0160006101000a81548173ffffffffffffffffffffffffffffffffffffffff021916908373ffffffffffffffffffffffffffffffffffffffff160217905550819050919050565b60405180610200016040528060109060208202803883398082019150509050509056fea265627a7a72315820b6c7122b958594e0dc2408377e91c37af3a9e58d9994d7d45caecb3909d117d264736f6c63430005100032",
  "source": "pragma solidity ^0.5.0;\n\ncontract Adoption {\n  address[16] public adopters;\n  uint income = 0;\n\n  // Adopting a pet\n  function adopt(uint petId) public payable returns (uint) {\n    require(petId >= 0 && petId <= 15);\n    income += msg.value;\n    adopters[petId] = msg.sender;\n    return petId;\n  }\n\n  // Rent a pet\n  function rent(uint petId) public payable returns (uint) {\n    require(petId >= 0 && petId <= 15);\n    income += msg.value;\n    adopters[petId] = msg.sender;\n    return petId;\n  }\n\n  // Retrieving the adopters\n  function getAdopters() public view returns (address[16] memory) {\n    return adopters;\n  }\n\n}\n",
  "sourcePath": "/Users/richardthompson/Documents/dev/pet-shop-tutorial/contracts/Adoption.sol",
  "compiler": {
    "name": "solc",
    "version": "0.5.16+commit.9c3226ce.Emscripten.clang"
  },
  "schemaVersion": "3.4.4",
  "updatedAt": "2022-01-22T15:46:13.201Z",
  "networkType": "ethereum",
  "devdoc": {
    "methods": {}
  },
  "userdoc": {
    "methods": {}
  }
}